:020000040800F2
:10000000A8040020CD190008391900083B19000880
:100010003D1900083F1900084119000800000000C0
:10002000000000000000000000000000431900086C
:100030004519000800000000471900084919000888
:10004000DD190008E1190008E5190008E9190008A0
:10005000ED190008F1190008F5190008F919000850
:10006000FD190008011A0008051A0008091A0008FD
:100070000D1A0008111A0008151A0008191A0008AC
:100080001D1A0008211A0008251A0008291A00085C
:100090002D1A0008311A0008351A0008391A00080C
:1000A0003D1A0008411A0008451A0008491A0008BC
:1000B0004D1A00084D190008511A0008551A000879
:1000C000591A00085D1A0008611A0008651A00082C
:1000D000691A00086D1A0008711A0008751A0008DC
:1000E000791A00087D1A0008811A0008851A00088C
:1000F000891A0008000000008D1A0008911A0008F3
:10010000951A0008991A00089D1A0008A11A0008FB
:10011000A51A0008A91A0008AD1A0008B11A0008AB
:10012000B51A000810B5040001D1012010BD94F8E3
:10013000390018B900F058F900F055FC5AE090F871
:100140003910012901D001207047022180F83910AF
:100150000168B1F1804F1CBFDFF8A822914207D09F
:10016000DFF8A43299421CBFDFF8A022914205D1EA
:10017000896801F00701062904D001680A6842F085
:1001800001020A600020704790F83910012901D05F
:1001900001207047022180F839100168CA6842F0D6
:1001A0000102CA600168B1F1804F1CBFDFF8542220
:1001B000914207D0DFF8503299421CBFDFF84C2241
:1001C000914205D1896801F00701062904D0016830
:1001D0000A6842F001020A600020704710B504006E
:1001E00001D1012010BD94F8390018B900F0FCF8D5
:1001F00000F050FC022084F83900211D206800F036
:100200009EFA012084F83E0084F83A0084F83B000E
:1002100084F83C0084F83D0084F83900002010BDCB
:1002200084F8390084F8380010BD10B5044611B9BF
:1002300094F83A000AE0042908BF94F83B0005D07E
:1002400008290CBF94F83C0094F83D00012801D027
:10025000012010BD11B900F0CCF818E0042904D138
:1002600000F0CBF800F0AAF816E0082905D102202A
:1002700084F83C0000F09DF80EE000F0A8F806D0ED
:100280000429EFD00829F5D00C2903D005E000F0AF
:100290008BF801E000F083F8C26000F094F800F001
:1002A00021F81CBFDFF85C11884206D000F06EF820
:1002B0001CBFDFF85811884203D100F06BF802D060
:1002C000206800F08CF8002010BD10B5040001D1AA
:1002D000012010BD94F8390018B900F085F800F03D
:1002E000DAFB87E72068B0F1804F704710B504460D
:1002F00011B994F83A000AE0042908BF94F83B00C9
:1003000005D008290CBF94F83C0094F83D00012862
:1003100001D0012010BD11B900F06BF818E00429DC
:1003200004D100F06AF800F049F816E0082905D178
:10033000022084F83C0000F03CF80EE000F047F8A2
:1003400006D00429EFD00829F5D00C2903D005E008
:1003500000F02AF801E000F022F8C26000F033F863
:10036000FFF7C0FF1CBFDFF89C10884206D000F0EA
:100370000DF81CBFDFF89410884203D100F00AF892
:1003800002D0206800F02BF8002010BDDFF87820A4
:1003900090427047806800F0070006287047206888
:1003A000C26842F0100270472068C26842F0020240
:1003B00070472068C26842F0080270472068C2682F
:1003C00042F0040270472068012200F0C2BA022005
:1003D0000A0084F83D007047C1600122206801686E
:1003E00041F0010101607047002184F83810204677
:1003F0007047022084F83A007047022084F83B00DE
:100400007047000000040040000800400008014060
:1004100010B50446206801698A0715D5C1688A07A6
:1004200012D56FF00201016101222276806910F07D
:10043000030F204602D000F02FFB03E000F08BFCFE
:1004400000F06DF800202076206801694A0715D574
:10045000C1684A0712D56FF00401016102222276B9
:10046000806910F4407F204602D000F015FB03E0C5
:1004700000F071FC00F053F800202076206801693C
:100480000A0715D5C1680A0712D56FF00801016186
:1004900004222276C06910F0030F204602D000F03B
:1004A000FBFA03E000F057FC00F039F8002020765A
:1004B00020680169CA0615D5C168CA0612D56FF051
:1004C0001001016108222276C06910F4407F2046A5
:1004D00002D000F0E1FA03E000F03DFC00F01FF86C
:1004E0000020207620680169CA0708D5C168CA07BC
:1004F00005D56FF001010161204600F011FC206874
:1005000001694A060AD5C1684A0607D56FF040015D
:1005100001612046BDE8104000F04BBC10BD2046F4
:1005200000F048BC10B5044694F83800012801D109
:10053000022010BD012084F838004AB1042A0BD0F3
:10054000082A0DD00C2A04BF206800F06CF90AE0DC
:10055000206800F028F906E0206800F03AF902E08F
:10056000206800F049F90020FFF75CBE38B500F0C4
:1005700056F801D1022032BD00F057F832B1042AFA
:1005800015D0082A25D00C2A34D044E0206800F089
:100590000AF92168886940F008008861886920F0BC
:1005A000040088618A69E86802438A6133E0206850
:1005B00000F00FF92068816941F40061816181696F
:1005C00021F4806181618169EA6841EA02218161E7
:1005D00021E0206800F010F92168C86940F00800A7
:1005E000C861C86920F00400C861CA69E8680243AC
:1005F000CA6110E0206800F016F92068C16941F472
:100600000061C161C16921F48061C161C169EA68A9
:1006100041EA0221C161002084F8380032BD04465D
:100620000D4694F8380001287047012084F83800FE
:10063000704710B500F05EF801D1022010BDFFF741
:10064000F4FF022284F83920DFF8840222689368DC
:10065000034093600868020018BF10282DD020289E
:1006600018BF302829D0402823D0502816D0602821
:1006700018D0702803D0B0F5005F07D021E000F05B
:1006800025F82068816841F0770105E000F01EF848
:100690002068816841F48041816012E000F012F826
:1006A00050210BE0CA684968206800F02EF96021EB
:1006B00004E000F007F8402100E00146206800F067
:1006C00036F934E0CA68496820680FE1CB684A68A7
:1006D0008968206833E110B500F00CF801D10220E0
:1006E00010BD00F00CF800B111E02068C16821F0E5
:1006F000400116E0044694F83800012870470120B4
:1007000084F83800022284F839202046A6E000F060
:1007100001F810BD012084F83900002184F8381058
:100720007047C1602068C16821F48041C160012028
:1007300084F83900002184F83810002010BDF0B58D
:10074000644F0368644C654D654EB0F1804F18BF2F
:10075000B84204D0B0421CBFA842A0420CD14A68A3
:1007600023F070031343B0F1804F18BFB8420AD092
:10077000B04218BFA84206D0A0421FBF594CA042A9
:10078000594A904203D1CA6823F4407313430A695B
:1007900023F080031343036001228B68C36209685E
:1007A00081624261F0BD70B5026A52085200026275
:1007B000046A456886690B688A68456026F0730696
:1007C0001E43866124F002044968416314430462B5
:1007D00070BD30B5026A22F010020262026A4368FC
:1007E000846900F033F8846122F020024968816353
:1007F00042EA0512026230BD70B5026A22F48072CC
:100800000262036A4468C5690A688E68446025F01C
:1008100073051543C56123F400734968C16343EA56
:100820000623036270BD30B5026A22F48052026270
:10083000026A4368C46900F009F8C46122F40052F6
:100840004968016442EA0532026230BD0D6824F451
:10085000E64444EA05248D684360704710B500689B
:1008600084684B680A6824F070041C43E40842EA78
:10087000C40484604C68402C0BD0502C1CD0602CDD
:100880001FD0702C21D10B698A68C96800F057F815
:100890001BE00A68052A01D1012010BD026A036A23
:1008A0005B085B0003628369096923F0F00343EA94
:1008B00001138361026208E00A69896800F016F892
:1008C00003E00A69896800F020F8002010BD0000EC
:1008D0008800FFFF0004004000080140000C0040B9
:1008E00000080040000C01400010014010B5036AF0
:1008F000046A64086400046223F00A03846924F033
:10090000F00444EA021484612EE010B5036A23F077
:10091000100303628369046A23F4704343EA0233D9
:1009200024F0A004836144EA0114046210BD8268CB
:1009300022F07002114341F007018160704710B549
:10094000846824F47F442143114341EA03218160F8
:1009500010BD10B501F01F01036A01248C40A343B0
:10096000036202FA01F1036A1943016210BD30B556
:10097000016884684218416802EB5103C90703D536
:100980004C4401E0491C08D19A4218BF12F9011BDE
:1009900001D10C3030BD12F8015B002904F8015B75
:1009A000F0D4491EF7D5EFE7354881B0416841F0F2
:1009B00000414160416801F00041009100990268E6
:1009C00042F001020260036803F001030093009902
:1009D000426842F080524260406800F080500090CF
:1009E000009801B0704780B500682649B0F1804F8B
:1009F00009D1086840F001000860096801F00101B0
:100A00000091009801BD204A904212D1086840F040
:100A1000020008600022096801F002010091002133
:100A200000981D2000F0E2F9BDE802401D2000F012
:100A3000FAB901BD10B586B004461422002101A800
:100A400000F01CFA2168B1F1804F16D10F480168FF
:100A500041F0010101600821006800F001000090F0
:100A6000022200980A480191029200210391049108
:100A70000121059101A900F00BFA06B010BD00009C
:100A80002038024024380240000400401C38024054
:100A900000000240704770477047000078B58BB087
:100AA00000F0DEFA00F006F91422002101A800F09F
:100AB000E5F9B848B84C016841F0200101604FF0F9
:100AC0008045026802F020020092FF260099026829
:100AD00042F0010202600022006800F00100009074
:100AE00040210098204600F0A3FA40210191012204
:100AF0000292002103910322049201A9204600F0F2
:100B0000C7F91022002106A800F0B8F900F0CDF8CE
:100B100000F0C6F80020A14C6060A0602061606118
:100B20002560E6602046FFF7FDFA08B100F03FF9C6
:100B30004FF48050069006A92046FFF77AFD08B1D1
:100B400000F035F92046FFF7C0FB08B100F02FF99F
:100B500020210091002201926946204600F090FA7F
:100B600008B100F024F9602102917F220021039254
:100B7000049105910C2202A92046FFF7F7FC08B169
:100B800000F015F92046FFF755FF1422002106A8B2
:100B900000F074F900F089F800F082F805F5806043
:100BA0002064002161640020A0643F21206560650D
:100BB000E16404F14000FFF7B5FA08B100F0F7F87E
:100BC00004F14000FFF70AFB08B100F0F0F807213C
:100BD00006911022079206A904F14000FFF77BFD61
:100BE00008B100F0E4F800210091019104F1400007
:100BF000694600F045FA08B100F0D9F81F220392C7
:100C00000021029104910022059202A904F1400002
:100C1000FFF788FC08B100F0CAF8E02084F88100F2
:100C200084F8806084F8926004F14000FFF7ACFA29
:100C3000002104F14000FFF7F8FA2046FFF77FFAA1
:100C40000C212046FFF752FB94F8940094F8921080
:100C500094F8932012E0401C04F18001C3B2C95CF7
:100C600013465A1CDBB203B1490001F0800384F83B
:100C7000903094F89050ED0984F8905094F89130A9
:100C8000012BFBD1D3B20025082B84F89150E7DB70
:100C90000022C1B20F29DED194F880100020DFE7D6
:100CA0001022002102A800F0E9B8082200216846BD
:100CB00000F0E4B880B592B03422002105A800F01D
:100CC000DDF81422FFF7F2FF3548016821F4C05126
:100CD00041F4006101600122059206924FF48031D7
:100CE00002220E920F914FF480124FF400011092E5
:100CF000119105A800F0FAF908B172B6FEE70F20CD
:100D0000032100900191002202920392049201219A
:100D1000684600F0C8FB08B172B6FEE713B000BD2C
:100D200000682049884211D11C49002081F89100B7
:100D300091F895205AB1012A08D191F890101648DF
:100D400011B1012901D0704700222DE07047012028
:100D500081F8950070470168124A914204BF007EF5
:100D6000012812D10D4981F8910091F896206AB1BD
:100D7000012A0AD191F89010074891F0010102D0A0
:100D8000012901D0704700220EE0704781F89600DB
:100D9000704700001C3802400000024000000020A4
:100DA0000070004000040040402100F041B972B6DC
:100DB000FEE77047704700000901020002D429488D
:100DC00081547047284B02F00F021A4402F8041CA9
:100DD0007047264B19684FF6FF020002114000F4DD
:100DE000E0600843224908431860704770B51F4B04
:100DF0001C68C4F302230124C3F10705052D2EBF8F
:100E00000F2504FA05F56D1E1E1D072E34BF0023A5
:100E1000DB1E2940994004FA03F3BDE870405B1ED5
:100E20001A401143C8E7010007D4012200F01F0156
:100E3000104B8A40400943F82020704710B5401EEF
:100E4000B0F1807F01D3012010BD0B4C60600F21F9
:100E50004FF0FF30FFF7B0FF0021A16007202060B6
:100E6000002010BD00E400E018ED00E00CED00E013
:100E70000000FA0500E100E010E000E010B50446D3
:100E800010460A460146204600F042FC204610BDAE
:100E90002DE9F84F0027684A684B4FF00F080546C8
:100EA0000E4634E0664CA54214BF072406248C404D
:100EB000644944EA0E0441F82C40C143146801EA35
:100EC000040C7468E40348BF40EA0C0CC2F800C08C
:100ED000546801EA040C7468A40348BF40EA0C0C8F
:100EE000C2F804C0946801EA040C7468E40248BFC4
:100EF00040EA0C0CC2F808C0D46801EA040C71681E
:100F0000890248BF40EA0C0CC2F80CC07F1C316853
:100F100031FA07F000F08A800124BC4014EA010095
:100F2000F4D04FEA470C032101FA0CF16FEA010EED
:100F30007168012918BF022903D0112918BF12298D
:100F400012D1A968D6F80C900EEA010109FA0CF941
:100F500049EA0101A960696821EA04047168C1F3E2
:100F60000011B9400C436C60E968B4680EEA0101F5
:100F700004FA0CF42143E960B9007468022C18BF2C
:100F8000122C12D1FC0805EB840401F01C09D4F8E2
:100F900020A008FA09FB2AEA0B0AD6F810B00BFACF
:100FA00009F949EA0A09C4F820902C680EEA040EEF
:100FB000347904F0030404FA0CF444EA0E042C60BF
:100FC0007468E400A2D51C6844F001041C604FEA78
:100FD000970C1C6804F00104009401F00C01009CC3
:100FE000184C54F82C4008FA01FE24EA0E0E164C58
:100FF000A54208BF002418D0144CA54208BF012404
:1010000013D0134CA54208BF02240ED0114CA542A8
:1010100008BF032409D0104CA54208BF042404D003
:101020000E4CA5427FF43EAF052440E7BDE8F18FAA
:1010300002B9090481617047000401402038024070
:101040000018024008000140000002400004024075
:1010500000080240000C0240001002400014024050
:10106000032010B5FFF7B5FE002000F085FB00243B
:10107000002814BF0124FFF797FC204610BD000094
:1010800030B590F83820012A01D1022030BD01226C
:1010900080F83820022380F8393004686568A36836
:1010A0000A6825F07005154365600268B2F1804F4B
:1010B0001CBF0B4CA24205D00A4DAA421CBF0A4CD1
:1010C000A24204D1496823F080030B4393600122BC
:1010D00080F83920002180F83810002030BD000051
:1010E0000004004000080040000801402DE9FC47D2
:1010F000040040D0DFF8EC65B068B56800F00C087B
:101100002078C10705F480350ED5B8F1080F05D059
:10111000B8F10C0F08BFB5F5803F47D130688103A7
:1011200002D56068002826D02078DFF8C8758107CE
:1011300014D5B8F1040F04D0B8F10C0F08BF002D7E
:101140006BD13068810702D5E06801281ED1706834
:10115000216920F4F85040EA012070602078C1062F
:1011600040F1B280B8F1000F40F0978030688105FF
:1011700003D5A069002800F08481206A716801F419
:101180006041814266D200F06EFA002840F0798119
:101190007168206A21F46041014371607168E069FF
:1011A00021F07F4141EA006171605EE060680128E2
:1011B00004D1306840F48030306013E008B9306802
:1011C00009E00528306806D140F48020306031689D
:1011D00041F4803105E020F480303060316821F442
:1011E00080213160606860B100F0E8FA074630683D
:1011F000810399D400F0E2FAC01B6528F7D30320DD
:1012000042E100F0DBFA0746306881038CD500F03C
:10121000D5FAC01B6528F7D3F1E7E06868B1012172
:10122000396000F0CBFA0546306881078FD400F0B2
:10123000C5FA401B0228F7D9E1E7386000F0BEFA92
:1012400005463168880789D500F0B8FA401B0228A6
:10125000F7D9D4E7716821F46041084300F016F92A
:10126000206A00F000FA002890D1216AB268490B88
:10127000C2F303120120491C8840DFF87C14DFF818
:101280006834895CC003C8401860DFF864040068F3
:1012900000F072FA010017D0F6E0A06940B3012116
:1012A000396200F08BFA05463068810505D400F0FC
:1012B00085FA401B0228F7D9A1E77068216A20F45B
:1012C0006040084300F0E2F8207801072BD5606900
:1012D000D8B10121C7F8801600F070FA0546706B8E
:1012E000810720D400F06AFA401B0228F7D986E76C
:1012F000386200F063FA054630688105E4D500F0F5
:101300005DFA401B0228F7D979E7C7F8800600F09C
:1013100055FA0546706B810705D500F04FFA401B62
:101320000228F7D96BE72078410761D5706A00255C
:10133000C10009D4706A40F0805070620125706A63
:1013400000F0805000900098DFF8B093D9F80000CA
:10135000C10513D4D9F8000040F48070C9F800002A
:1013600000F02CFA8246D9F80000C10506D400F03E
:1013700025FAA0EB0A006528F5D340E7A06801280C
:1013800008D008B9706B09E00528706B06D140F4ED
:1013900080607063706B40F4807005E020F48070B2
:1013A0007063706B20F48060706341F28939A068CB
:1013B00060B100F003FA8246706B810513D400F02F
:1013C000FDF9A0EB0A004845F6D318E700F0F6F95E
:1013D0008246706B810506D500F0F0F9A0EB0A009B
:1013E0004845F6D30BE71DB1706A20F0805070625B
:1013F000606A002847D0B8F10C0F30D0022822D103
:1014000000F04DF805463068810105D500F0D6F9A9
:10141000401B0228F7D9F2E6B068A16AE26A20F41C
:101420007D000843216B10430843B060012000F0A9
:1014300037F804463068810125D400F0BFF9001B5D
:101440000228F7D9DBE600F02AF80446306881016B
:1014500019D500F0B3F9001B0228F7D9CFE601280F
:101460000FD0B068A26A00F48031914202BF00F44C
:101470007011E26A914202BF00F44000216B884281
:1014800001D0012000E00020BDE8F68770607068A0
:10149000E16920F07F4040EA016070607047002001
:1014A000386600F08BB92DE9F04104000E466FD08C
:1014B000DFF83052D5F8000400F00100B04202D24B
:1014C00000F08DF864D12178880705D5A968A06857
:1014D00021F0F0010143A9602178C8074FD5606869
:1014E000022802D129688A0308E0032802D129686A
:1014F0008A0103E00128296802D18A0702D447E063
:101500008A0545D5A968890840EA8100A86041F2AA
:10151000893800F053F90746606802280BD1A868A3
:1015200000F00C0008282AD000F048F9C01B404504
:10153000F5D3032051E003280AD1A86800F00C007D
:101540000C281CD000F03AF9C01B4045F5D3F0E759
:1015500001280AD1A86800F00C0004280FD000F080
:101560002DF9C01B4045F5D3E3E7A86810F00C0F38
:1015700005D000F023F9C01B4045F6D3D9E7D5F8D4
:10158000000400F00100864204D200F028F801D0E7
:10159000012022E02078410705D5AA68E06822F4FE
:1015A000E0620243AA602178080706D5A96820698D
:1015B00021F4605141EAC001A96000F025F8AA6851
:1015C0004D49494BC2F30312895CC8401860BDE81D
:1015D000F0414748006800F0CFB8BDE8F081012E27
:1015E00005D1D5F8000440F00400C5F80004D5F892
:1015F0000004400846EA4000C5F80004D5F800049D
:1016000000F00100B042704730B53E48416801F03B
:101610000C02042A04D0082A04D00C2A04D018E0B2
:10162000324830BD384830BD384AC1F38343D45CBA
:101630004068C1F38152521C0023C50347BF3248A2
:10164000A0FB0401294DA5FB0401BDE8304000F0DA
:10165000BBB80068400B00F007000121401C01FAF4
:1016600000F0C00330BD38B525490B68002213F0E7
:10167000F00F24D1CC69214BE50003D51B6803F49E
:10168000C0530FE0CC6944F08054CC61CC6904F0C5
:1016900080540094009C1B68CC6924F0805403F4AF
:1016A000C053CC61B3F5C05F08BFB0F5404F06D161
:1016B000D1F8F80340F004000122C1F8F803D1F892
:1016C000F803400842EA4000C1F8F803D1F8F803F3
:1016D00000F00100904201D0012032BD002032BD57
:1016E0000000000000380240A40000200024F400A4
:1016F0009C00002000004742F018000800700040E5
:10170000083802400438024000127A00E418000849
:1017100062F30F2262F31F42401810F0030308D057
:10172000C91A1FD3DB0748BF00F8012D28BF20F8D6
:10173000022D130030B414461546103928BF20E995
:101740003C00FAD8490728BF20E90C0048BF40F800
:10175000042D890028BF20F8022D48BF00F8012D74
:1017600030BC7047C91818BF00F8012DCB0728BF3F
:1017700000F8012D7047000070B50E4E0446B068A9
:101780000025A0B14FF47A710B4AB1FBF0F110685B
:10179000B0FBF1F0FFF752FB48B9102C07D2002242
:1017A00021464FF0FF30FFF721FB746000E0012578
:1017B000284670BD98000020A40000200148006861
:1017C000704700BF98000020D3BBD9B1B2F5803F6D
:1017D0005BD2022A1ED98C46B1FBF2F102FB11C387
:1017E0001B0443EA1043B3FBF2FC02FB1C3380B240
:1017F00040EA0343B3FBF2F002FB103240EA0C4034
:1018000000237047022A05D98446B0FBF2F002FBA0
:1018100010C270474AB105D100F0010249085FEAE1
:101820003000704700220023704700F051B80B00D1
:101830000200002100207047F7D3002200237047E8
:10184000904271EB030CF2D370B5B1FA81F4B3FAA4
:1018500083F52C1BA340C4F1200532FA05F633436F
:10186000A2405FF00046E64002E05B085FEA320219
:10187000841A71EB030524BF204629467641F4D330
:1018800002000B003000002170BD70B5B1FA81F488
:10189000B2FA82F5C4F120046419B4F12006DAD357
:1018A000B2405FF00044F440002502E052085FEAD5
:1018B0003303C61A71EB020E24BF304671466441F1
:1018C0006D41F3D302000B002000290070BD000021
:1018D0007047000002494FF0006008607047000048
:1018E00008ED00E0030406080C101820300000008A
:1018F00000000000000000000102030406070809C0
:1019000010B5074979441831064C7C44163404E07C
:101910000A68081D114488470146A142F8D110BD4C
:10192000080000001400000047F0FFFF8C010000D9
:101930004600000000000020FEE7FEE7FEE7FEE7AD
:10194000FEE770477047704700F006B80148FEF7A1
:101950005FBD00004000002002490A6888688218C4
:101960000A6070479800002000F00DF8002801D0B0
:10197000FFF7C6FFAFF300800020AFF30080FFF752
:101980008DF800F002F80120704700F001B8000067
:101990000746384600F002F8FBE7000080B5AFF3D9
:1019A0000080024A11001820ABBEFBE726000200AF
:1019B0000548014603B4684680F30988AFF3008008
:1019C000AFF30080FFF7D0FFA5EDF5FE014880479B
:1019D00001480047D5180008B1190008FFF7FEBFFD
:1019E000FFF7FEBFFFF7FEBFFFF7FEBFFFF7FEBF2B
:1019F000FFF7FEBFFFF7FEBFFFF7FEBFFFF7FEBF1B
:101A0000FFF7FEBFFFF7FEBFFFF7FEBFFFF7FEBF0A
:101A1000FFF7FEBFFFF7FEBFFFF7FEBFFFF7FEBFFA
:101A2000FFF7FEBFFFF7FEBFFFF7FEBFFFF7FEBFEA
:101A3000FFF7FEBFFFF7FEBFFFF7FEBFFFF7FEBFDA
:101A4000FFF7FEBFFFF7FEBFFFF7FEBFFFF7FEBFCA
:101A5000FFF7FEBFFFF7FEBFFFF7FEBFFFF7FEBFBA
:101A6000FFF7FEBFFFF7FEBFFFF7FEBFFFF7FEBFAA
:101A7000FFF7FEBFFFF7FEBFFFF7FEBFFFF7FEBF9A
:101A8000FFF7FEBFFFF7FEBFFFF7FEBFFFF7FEBF8A
:101A9000FFF7FEBFFFF7FEBFFFF7FEBFFFF7FEBF7A
:101AA000FFF7FEBFFFF7FEBFFFF7FEBFFFF7FEBF6A
:101AB000FFF7FEBFFFF7FEBF81001000303041424C
:101AC000434445464748494A4B4C4D4EF4000010AC
:0B1AD000FD000001FD000368FF1F0087
:04000005080019B125
:00000001FF
